{
  "contractName": "BLSTest",
  "abi": [
    {
      "inputs": [],
      "payable": false,
      "stateMutability": "nonpayable",
      "type": "constructor"
    },
    {
      "constant": false,
      "inputs": [
        {
          "internalType": "bytes",
          "name": "_message",
          "type": "bytes"
        },
        {
          "internalType": "uint256",
          "name": "_signatureX",
          "type": "uint256"
        },
        {
          "internalType": "uint256",
          "name": "_signatureY",
          "type": "uint256"
        }
      ],
      "name": "verify",
      "outputs": [
        {
          "internalType": "bool",
          "name": "",
          "type": "bool"
        }
      ],
      "payable": false,
      "stateMutability": "nonpayable",
      "type": "function"
    }
  ],
  "bytecode": "0x608060405234801561001057600080fd5b50604051806040016040528060405180604001604052807f28f3c1a3abbcecf79ce9055575c4fc64977ca155d970d0acfacdbd9e955d2cf981526020017f0ca87dc9b1b7f6d50e88661e5d26563d711cd303d1cfd4c41a9f570c59fe3bc6815250815260200160405180604001604052807f087026b1d11d41c57704d49dcc7f06ca45bd645410bcf176625dc1e3fd67090c81526020017f017f53b7486693313c0bcc3b6a2538cc1a56cd56579a7c051779acadb229040e815250815250600080820151816000019060026100e6929190610107565b506020820151816002019060026100fe929190610107565b5090505061016c565b8260028101928215610136579160200282015b8281111561013557825182559160200191906001019061011a565b5b5090506101439190610147565b5090565b61016991905b8082111561016557600081600090555060010161014d565b5090565b90565b6109fa8061017b6000396000f3fe608060405234801561001057600080fd5b506004361061002b5760003560e01c8063198e744a14610030575b600080fd5b6100fd6004803603606081101561004657600080fd5b810190808035906020019064010000000081111561006357600080fd5b82018360208201111561007557600080fd5b8035906020019184600183028401116401000000008311171561009757600080fd5b91908080601f016020809104026020016040519081016040528093929190818152602001838380828437600081840152601f19601f8201169050808301925050505050505091929192908035906020019092919080359060200190929190505050610117565b604051808215151515815260200191505060405180910390f35b60006101216108df565b60405180604001604052808581526020018481525090506101d9600060405180604001604052908160008201600280602002604051908101604052809291908260028015610184576020028201915b815481526020019060010190808311610170575b50505050508152602001600282016002806020026040519081016040528092919082600280156101c9576020028201915b8154815260200190600101908083116101b5575b50505050508152505086836101e3565b9150509392505050565b60006101ed6108df565b6101f68461021d565b90506102136102048461024d565b61020c6102e7565b83886103b1565b9150509392505050565b6102256108df565b6000828051906020012060001c905061024561023f6104ad565b826104d1565b915050919050565b6102556108df565b60007f30644e72e131a029b85045b68181585d97816a916871ca8d3c208c16d87cfd47905060008360000151148015610292575060008360200151145b156102b65760405180604001604052806000815260200160008152509150506102e2565b604051806040016040528084600001518152602001828560200151816102d857fe5b0683038152509150505b919050565b6102ef6108f9565b604051806040016040528060405180604001604052807f198e9393920d483a7260bfb731fb5d25f1aa493335a9e71297e485b7aef312c281526020017f1800deef121f1e76426a00665e5c4479674322d4f75edadd46debd5cd992f6ed815250815260200160405180604001604052807f090689d0585ff075ec9e99ad690c3395bc4b313370b38ef355acdadcd122975b81526020017f12c85ea5db8c6deb4aab71808dcb408fe3d1e7690c43d37b4ce6cc0166fa7daa815250815250905090565b6000606060026040519080825280602002602001820160405280156103f057816020015b6103dd61091f565b8152602001906001900390816103d55790505b5090506060600260405190808252806020026020018201604052801561043057816020015b61041d610939565b8152602001906001900390816104155790505b509050868260008151811061044157fe5b6020026020010181905250848260018151811061045a57fe5b6020026020010181905250858160008151811061047357fe5b6020026020010181905250838160018151811061048c57fe5b60200260200101819052506104a182826105c9565b92505050949350505050565b6104b56108df565b6040518060400160405280600181526020016002815250905090565b6104d96108df565b6104e161095f565b8360000151816000600381106104f357fe5b60200201818152505083602001518160016003811061050e57fe5b602002018181525050828160026003811061052557fe5b60200201818152505060006105386108df565b606081608085600060076107d05a03f19150816105bd576040517f08c379a000000000000000000000000000000000000000000000000000000000815260040180806020018281038252601c8152602001807f506f696e74206d756c7469706c69636174696f6e206661696c65642e0000000081525060200191505060405180910390fd5b80935050505092915050565b60008151835114610642576040517f08c379a00000000000000000000000000000000000000000000000000000000081526004018080602001828103825260158152602001807f506f696e7420636f756e74206d69736d617463682e000000000000000000000081525060200191505060405180910390fd5b60008351905060006006820290506060816040519080825280602002602001820160405280156106815781602001602082028038833980820191505090505b50905060008090505b838110156108275786818151811061069e57fe5b6020026020010151600001518260006006840201815181106106bc57fe5b6020026020010181815250508681815181106106d457fe5b6020026020010151602001518260016006840201815181106106f257fe5b60200260200101818152505085818151811061070a57fe5b60200260200101516000015160006002811061072257fe5b602002015182600260068402018151811061073957fe5b60200260200101818152505085818151811061075157fe5b60200260200101516000015160016002811061076957fe5b602002015182600360068402018151811061078057fe5b60200260200101818152505085818151811061079857fe5b6020026020010151602001516000600281106107b057fe5b60200201518260046006840201815181106107c757fe5b6020026020010181815250508581815181106107df57fe5b6020026020010151602001516001600281106107f757fe5b602002015182600560068402018151811061080e57fe5b602002602001018181525050808060010191505061068a565b50610830610981565b60006020826020860260208601600060086107d05a03f19050806108bc576040517f08c379a00000000000000000000000000000000000000000000000000000000081526004018080602001828103825260198152602001807f50616972696e67206f7065726174696f6e206661696c65642e0000000000000081525060200191505060405180910390fd5b6000826000600181106108cb57fe5b602002015114159550505050505092915050565b604051806040016040528060008152602001600081525090565b604051806040016040528061090c6109a3565b81526020016109196109a3565b81525090565b604051806040016040528060008152602001600081525090565b604051806040016040528061094c6109a3565b81526020016109596109a3565b81525090565b6040518060600160405280600390602082028038833980820191505090505090565b6040518060200160405280600190602082028038833980820191505090505090565b604051806040016040528060029060208202803883398082019150509050509056fea265627a7a723158200fb3fad19a72f21ad33fed0e7f5cbb62b83ac6b4413da3620aeefdcadd586f9e64736f6c63430005100032",
  "source": "pragma solidity ^0.5.2;\n\nimport \"./Pairing.sol\";\nimport \"./BLS.sol\";\n\n\n/**\n * @title BLSTest\n * @dev Testing contract for the BLS library.\n */\ncontract BLSTest {\n    /*\n     * Storage\n     */\n\n    Pairing.G2Point verificationKey;\n\n\n    /*\n     * Constructor\n     */\n\n    constructor() public {\n        verificationKey = Pairing.G2Point({\n            x: [\n                18523194229674161632574346342370534213928970227736813349975332190798837787897,\n                5725452645840548248571879966249653216818629536104756116202892528545334967238\n            ],\n            y: [\n                3816656720215352836236372430537606984911914992659540439626020770732736710924,\n                677280212051826798882467475639465784259337739185938192379192340908771705870\n            ]\n        });\n    }\n\n\n    /*\n     * Public functions\n     */\n\n    function verify(bytes memory _message, uint _signatureX, uint _signatureY) public returns (bool) {\n        Pairing.G1Point memory signature = Pairing.G1Point({\n            x: _signatureX,\n            y: _signatureY\n        });\n        return BLS.verify(verificationKey, _message, signature);\n    }\n}\n",
  "sourcePath": "/home/matt/Projects/near/solidity-bls/contracts/BLSTest.sol",
  "compiler": {
    "name": "solc",
    "version": "0.5.16+commit.9c3226ce.Emscripten.clang"
  },
  "schemaVersion": "3.3.3",
  "updatedAt": "2021-01-08T21:23:07.168Z",
  "devdoc": {
    "details": "Testing contract for the BLS library.",
    "methods": {},
    "title": "BLSTest"
  },
  "userdoc": {
    "methods": {}
  }
}